{
  "address": "0x4E2D90a523D73912f08636530BF9388eE23b15E2",
  "abi": [
    {
      "inputs": [],
      "stateMutability": "nonpayable",
      "type": "constructor"
    },
    {
      "anonymous": false,
      "inputs": [
        {
          "indexed": true,
          "internalType": "address",
          "name": "owner",
          "type": "address"
        },
        {
          "indexed": true,
          "internalType": "address",
          "name": "spender",
          "type": "address"
        },
        {
          "indexed": false,
          "internalType": "uint256",
          "name": "value",
          "type": "uint256"
        }
      ],
      "name": "Approval",
      "type": "event"
    },
    {
      "anonymous": false,
      "inputs": [
        {
          "indexed": true,
          "internalType": "address",
          "name": "previousOwner",
          "type": "address"
        },
        {
          "indexed": true,
          "internalType": "address",
          "name": "newOwner",
          "type": "address"
        }
      ],
      "name": "OwnershipTransferred",
      "type": "event"
    },
    {
      "anonymous": false,
      "inputs": [
        {
          "indexed": false,
          "internalType": "address",
          "name": "account",
          "type": "address"
        }
      ],
      "name": "Paused",
      "type": "event"
    },
    {
      "anonymous": false,
      "inputs": [
        {
          "indexed": true,
          "internalType": "address",
          "name": "from",
          "type": "address"
        },
        {
          "indexed": true,
          "internalType": "address",
          "name": "to",
          "type": "address"
        },
        {
          "indexed": false,
          "internalType": "uint256",
          "name": "value",
          "type": "uint256"
        }
      ],
      "name": "Transfer",
      "type": "event"
    },
    {
      "anonymous": false,
      "inputs": [
        {
          "indexed": false,
          "internalType": "address",
          "name": "account",
          "type": "address"
        }
      ],
      "name": "Unpaused",
      "type": "event"
    },
    {
      "inputs": [],
      "name": "DOMAIN_SEPARATOR",
      "outputs": [
        {
          "internalType": "bytes32",
          "name": "",
          "type": "bytes32"
        }
      ],
      "stateMutability": "view",
      "type": "function"
    },
    {
      "inputs": [
        {
          "internalType": "address",
          "name": "owner",
          "type": "address"
        },
        {
          "internalType": "address",
          "name": "spender",
          "type": "address"
        }
      ],
      "name": "allowance",
      "outputs": [
        {
          "internalType": "uint256",
          "name": "",
          "type": "uint256"
        }
      ],
      "stateMutability": "view",
      "type": "function"
    },
    {
      "inputs": [
        {
          "internalType": "address",
          "name": "spender",
          "type": "address"
        },
        {
          "internalType": "uint256",
          "name": "amount",
          "type": "uint256"
        }
      ],
      "name": "approve",
      "outputs": [
        {
          "internalType": "bool",
          "name": "",
          "type": "bool"
        }
      ],
      "stateMutability": "nonpayable",
      "type": "function"
    },
    {
      "inputs": [
        {
          "internalType": "address",
          "name": "account",
          "type": "address"
        }
      ],
      "name": "balanceOf",
      "outputs": [
        {
          "internalType": "uint256",
          "name": "",
          "type": "uint256"
        }
      ],
      "stateMutability": "view",
      "type": "function"
    },
    {
      "inputs": [
        {
          "internalType": "uint256",
          "name": "amount",
          "type": "uint256"
        }
      ],
      "name": "burn",
      "outputs": [],
      "stateMutability": "nonpayable",
      "type": "function"
    },
    {
      "inputs": [
        {
          "internalType": "address",
          "name": "account",
          "type": "address"
        },
        {
          "internalType": "uint256",
          "name": "amount",
          "type": "uint256"
        }
      ],
      "name": "burnFrom",
      "outputs": [],
      "stateMutability": "nonpayable",
      "type": "function"
    },
    {
      "inputs": [],
      "name": "decimals",
      "outputs": [
        {
          "internalType": "uint8",
          "name": "",
          "type": "uint8"
        }
      ],
      "stateMutability": "view",
      "type": "function"
    },
    {
      "inputs": [
        {
          "internalType": "address",
          "name": "spender",
          "type": "address"
        },
        {
          "internalType": "uint256",
          "name": "subtractedValue",
          "type": "uint256"
        }
      ],
      "name": "decreaseAllowance",
      "outputs": [
        {
          "internalType": "bool",
          "name": "",
          "type": "bool"
        }
      ],
      "stateMutability": "nonpayable",
      "type": "function"
    },
    {
      "inputs": [
        {
          "internalType": "address",
          "name": "spender",
          "type": "address"
        },
        {
          "internalType": "uint256",
          "name": "addedValue",
          "type": "uint256"
        }
      ],
      "name": "increaseAllowance",
      "outputs": [
        {
          "internalType": "bool",
          "name": "",
          "type": "bool"
        }
      ],
      "stateMutability": "nonpayable",
      "type": "function"
    },
    {
      "inputs": [
        {
          "internalType": "address",
          "name": "to",
          "type": "address"
        },
        {
          "internalType": "uint256",
          "name": "amount",
          "type": "uint256"
        }
      ],
      "name": "mint",
      "outputs": [],
      "stateMutability": "nonpayable",
      "type": "function"
    },
    {
      "inputs": [],
      "name": "name",
      "outputs": [
        {
          "internalType": "string",
          "name": "",
          "type": "string"
        }
      ],
      "stateMutability": "view",
      "type": "function"
    },
    {
      "inputs": [
        {
          "internalType": "address",
          "name": "owner",
          "type": "address"
        }
      ],
      "name": "nonces",
      "outputs": [
        {
          "internalType": "uint256",
          "name": "",
          "type": "uint256"
        }
      ],
      "stateMutability": "view",
      "type": "function"
    },
    {
      "inputs": [],
      "name": "owner",
      "outputs": [
        {
          "internalType": "address",
          "name": "",
          "type": "address"
        }
      ],
      "stateMutability": "view",
      "type": "function"
    },
    {
      "inputs": [],
      "name": "pause",
      "outputs": [],
      "stateMutability": "nonpayable",
      "type": "function"
    },
    {
      "inputs": [],
      "name": "paused",
      "outputs": [
        {
          "internalType": "bool",
          "name": "",
          "type": "bool"
        }
      ],
      "stateMutability": "view",
      "type": "function"
    },
    {
      "inputs": [
        {
          "internalType": "address",
          "name": "owner",
          "type": "address"
        },
        {
          "internalType": "address",
          "name": "spender",
          "type": "address"
        },
        {
          "internalType": "uint256",
          "name": "value",
          "type": "uint256"
        },
        {
          "internalType": "uint256",
          "name": "deadline",
          "type": "uint256"
        },
        {
          "internalType": "uint8",
          "name": "v",
          "type": "uint8"
        },
        {
          "internalType": "bytes32",
          "name": "r",
          "type": "bytes32"
        },
        {
          "internalType": "bytes32",
          "name": "s",
          "type": "bytes32"
        }
      ],
      "name": "permit",
      "outputs": [],
      "stateMutability": "nonpayable",
      "type": "function"
    },
    {
      "inputs": [],
      "name": "renounceOwnership",
      "outputs": [],
      "stateMutability": "nonpayable",
      "type": "function"
    },
    {
      "inputs": [],
      "name": "symbol",
      "outputs": [
        {
          "internalType": "string",
          "name": "",
          "type": "string"
        }
      ],
      "stateMutability": "view",
      "type": "function"
    },
    {
      "inputs": [],
      "name": "totalSupply",
      "outputs": [
        {
          "internalType": "uint256",
          "name": "",
          "type": "uint256"
        }
      ],
      "stateMutability": "view",
      "type": "function"
    },
    {
      "inputs": [
        {
          "internalType": "address",
          "name": "to",
          "type": "address"
        },
        {
          "internalType": "uint256",
          "name": "amount",
          "type": "uint256"
        }
      ],
      "name": "transfer",
      "outputs": [
        {
          "internalType": "bool",
          "name": "",
          "type": "bool"
        }
      ],
      "stateMutability": "nonpayable",
      "type": "function"
    },
    {
      "inputs": [
        {
          "internalType": "address",
          "name": "from",
          "type": "address"
        },
        {
          "internalType": "address",
          "name": "to",
          "type": "address"
        },
        {
          "internalType": "uint256",
          "name": "amount",
          "type": "uint256"
        }
      ],
      "name": "transferFrom",
      "outputs": [
        {
          "internalType": "bool",
          "name": "",
          "type": "bool"
        }
      ],
      "stateMutability": "nonpayable",
      "type": "function"
    },
    {
      "inputs": [
        {
          "internalType": "address",
          "name": "newOwner",
          "type": "address"
        }
      ],
      "name": "transferOwnership",
      "outputs": [],
      "stateMutability": "nonpayable",
      "type": "function"
    },
    {
      "inputs": [],
      "name": "unpause",
      "outputs": [],
      "stateMutability": "nonpayable",
      "type": "function"
    }
  ],
  "transactionHash": "0x968b9b0259f51bfff681328889a6ddfc65777818e14d08daea17c36e20946df1",
  "args": [],
  "numDeployments": 2,
  "solcInputHash": "716943350a4e32333dafd9ea3c19e88c",
  "bytecode": "0x6101606040527f6e71edae12b1b97f4d1f60370fef10105fa2faae0126114a169c64845d6126c9610140908152503480156200003a57600080fd5b506040518060400160405280600781526020017f4d79546f6b656e00000000000000000000000000000000000000000000000000815250806040518060400160405280600181526020017f31000000000000000000000000000000000000000000000000000000000000008152506040518060400160405280600781526020017f4d79546f6b656e000000000000000000000000000000000000000000000000008152506040518060400160405280600381526020017f4d544b000000000000000000000000000000000000000000000000000000000081525081600390805190602001906200012c929190620005ab565b50806004908051906020019062000145929190620005ab565b5050506000600560006101000a81548160ff02191690831515021790555062000183620001776200026d60201b60201c565b6200027560201b60201c565b60008280519060200120905060008280519060200120905060007f8b73c3c69bb8fe3d512ecc4cf759cc79239f7b179b0ffacaa9a75d522b39400f90508260e081815250508161010081815250504660a08181525050620001ec8184846200033b60201b60201c565b608081815250503073ffffffffffffffffffffffffffffffffffffffff1660c08173ffffffffffffffffffffffffffffffffffffffff1660601b81525050806101208181525050505050505050620002676200024d6200037760201b60201c565b6c0c9f2c9cd04674edea40000000620003a160201b60201c565b62000936565b600033905090565b6000600560019054906101000a900473ffffffffffffffffffffffffffffffffffffffff16905081600560016101000a81548173ffffffffffffffffffffffffffffffffffffffff021916908373ffffffffffffffffffffffffffffffffffffffff1602179055508173ffffffffffffffffffffffffffffffffffffffff168173ffffffffffffffffffffffffffffffffffffffff167f8be0079c531659141344cd1fd0a4f28419497f9722a3daafe3b4186f6b6457e060405160405180910390a35050565b6000838383463060405160200162000358959493929190620006dc565b6040516020818303038152906040528051906020012090509392505050565b6000600560019054906101000a900473ffffffffffffffffffffffffffffffffffffffff16905090565b600073ffffffffffffffffffffffffffffffffffffffff168273ffffffffffffffffffffffffffffffffffffffff16141562000414576040517f08c379a00000000000000000000000000000000000000000000000000000000081526004016200040b906200075b565b60405180910390fd5b62000428600083836200051a60201b60201c565b80600260008282546200043c9190620007ab565b92505081905550806000808473ffffffffffffffffffffffffffffffffffffffff1673ffffffffffffffffffffffffffffffffffffffff1681526020019081526020016000206000828254620004939190620007ab565b925050819055508173ffffffffffffffffffffffffffffffffffffffff16600073ffffffffffffffffffffffffffffffffffffffff167fddf252ad1be2c89b69c2b068fc378daa952ba7f163c4a11628f55a4df523b3ef83604051620004fa91906200077d565b60405180910390a362000516600083836200058a60201b60201c565b5050565b6200052a6200058f60201b60201c565b156200056d576040517f08c379a0000000000000000000000000000000000000000000000000000000008152600401620005649062000739565b60405180910390fd5b62000585838383620005a660201b62000d891760201c565b505050565b505050565b6000600560009054906101000a900460ff16905090565b505050565b828054620005b99062000850565b90600052602060002090601f016020900481019282620005dd576000855562000629565b82601f10620005f857805160ff191683800117855562000629565b8280016001018555821562000629579182015b82811115620006285782518255916020019190600101906200060b565b5b5090506200063891906200063c565b5090565b5b80821115620006575760008160009055506001016200063d565b5090565b620006668162000808565b82525050565b62000677816200081c565b82525050565b60006200068c6010836200079a565b91506200069982620008e4565b602082019050919050565b6000620006b3601f836200079a565b9150620006c0826200090d565b602082019050919050565b620006d68162000846565b82525050565b600060a082019050620006f360008301886200066c565b6200070260208301876200066c565b6200071160408301866200066c565b620007206060830185620006cb565b6200072f60808301846200065b565b9695505050505050565b6000602082019050818103600083015262000754816200067d565b9050919050565b600060208201905081810360008301526200077681620006a4565b9050919050565b6000602082019050620007946000830184620006cb565b92915050565b600082825260208201905092915050565b6000620007b88262000846565b9150620007c58362000846565b9250827fffffffffffffffffffffffffffffffffffffffffffffffffffffffffffffffff03821115620007fd57620007fc62000886565b5b828201905092915050565b6000620008158262000826565b9050919050565b6000819050919050565b600073ffffffffffffffffffffffffffffffffffffffff82169050919050565b6000819050919050565b600060028204905060018216806200086957607f821691505b6020821081141562000880576200087f620008b5565b5b50919050565b7f4e487b7100000000000000000000000000000000000000000000000000000000600052601160045260246000fd5b7f4e487b7100000000000000000000000000000000000000000000000000000000600052602260045260246000fd5b7f5061757361626c653a2070617573656400000000000000000000000000000000600082015250565b7f45524332303a206d696e7420746f20746865207a65726f206164647265737300600082015250565b60805160a05160c05160601c60e051610100516101205161014051613016620009946000396000610b0f0152600061131c0152600061135e0152600061133d01526000611272015260006112c8015260006112f101526130166000f3fe608060405234801561001057600080fd5b506004361061014d5760003560e01c806370a08231116100c357806395d89b411161007c57806395d89b4114610368578063a457c2d714610386578063a9059cbb146103b6578063d505accf146103e6578063dd62ed3e14610402578063f2fde38b146104325761014d565b806370a08231146102ba578063715018a6146102ea57806379cc6790146102f45780637ecebe00146103105780638456cb59146103405780638da5cb5b1461034a5761014d565b80633644e515116101155780633644e5151461020c578063395093511461022a5780633f4ba83a1461025a57806340c10f191461026457806342966c68146102805780635c975abb1461029c5761014d565b806306fdde0314610152578063095ea7b31461017057806318160ddd146101a057806323b872dd146101be578063313ce567146101ee575b600080fd5b61015a61044e565b60405161016791906125bf565b60405180910390f35b61018a6004803603810190610185919061205f565b6104e0565b6040516101979190612490565b60405180910390f35b6101a8610503565b6040516101b59190612861565b60405180910390f35b6101d860048036038101906101d39190611f72565b61050d565b6040516101e59190612490565b60405180910390f35b6101f661053c565b604051610203919061287c565b60405180910390f35b610214610545565b60405161022191906124ab565b60405180910390f35b610244600480360381019061023f919061205f565b610554565b6040516102519190612490565b60405180910390f35b6102626105fe565b005b61027e6004803603810190610279919061205f565b610684565b005b61029a6004803603810190610295919061209b565b61070e565b005b6102a4610722565b6040516102b19190612490565b60405180910390f35b6102d460048036038101906102cf9190611f0d565b610739565b6040516102e19190612861565b60405180910390f35b6102f2610781565b005b61030e6004803603810190610309919061205f565b610809565b005b61032a60048036038101906103259190611f0d565b610829565b6040516103379190612861565b60405180910390f35b610348610879565b005b6103526108ff565b60405161035f9190612475565b60405180910390f35b610370610929565b60405161037d91906125bf565b60405180910390f35b6103a0600480360381019061039b919061205f565b6109bb565b6040516103ad9190612490565b60405180910390f35b6103d060048036038101906103cb919061205f565b610aa5565b6040516103dd9190612490565b60405180910390f35b61040060048036038101906103fb9190611fc1565b610ac8565b005b61041c60048036038101906104179190611f36565b610c0a565b6040516104299190612861565b60405180910390f35b61044c60048036038101906104479190611f0d565b610c91565b005b60606003805461045d906129da565b80601f0160208091040260200160405190810160405280929190818152602001828054610489906129da565b80156104d65780601f106104ab576101008083540402835291602001916104d6565b820191906000526020600020905b8154815290600101906020018083116104b957829003601f168201915b5050505050905090565b6000806104eb610d8e565b90506104f8818585610d96565b600191505092915050565b6000600254905090565b600080610518610d8e565b9050610525858285610f61565b610530858585610fed565b60019150509392505050565b60006012905090565b600061054f61126e565b905090565b60008061055f610d8e565b90506105f3818585600160008673ffffffffffffffffffffffffffffffffffffffff1673ffffffffffffffffffffffffffffffffffffffff16815260200190815260200160002060008973ffffffffffffffffffffffffffffffffffffffff1673ffffffffffffffffffffffffffffffffffffffff168152602001908152602001600020546105ee91906128be565b610d96565b600191505092915050565b610606610d8e565b73ffffffffffffffffffffffffffffffffffffffff166106246108ff565b73ffffffffffffffffffffffffffffffffffffffff161461067a576040517f08c379a0000000000000000000000000000000000000000000000000000000008152600401610671906127a1565b60405180910390fd5b610682611388565b565b61068c610d8e565b73ffffffffffffffffffffffffffffffffffffffff166106aa6108ff565b73ffffffffffffffffffffffffffffffffffffffff1614610700576040517f08c379a00000000000000000000000000000000000000000000000000000000081526004016106f7906127a1565b60405180910390fd5b61070a828261142a565b5050565b61071f610719610d8e565b8261158a565b50565b6000600560009054906101000a900460ff16905090565b60008060008373ffffffffffffffffffffffffffffffffffffffff1673ffffffffffffffffffffffffffffffffffffffff168152602001908152602001600020549050919050565b610789610d8e565b73ffffffffffffffffffffffffffffffffffffffff166107a76108ff565b73ffffffffffffffffffffffffffffffffffffffff16146107fd576040517f08c379a00000000000000000000000000000000000000000000000000000000081526004016107f4906127a1565b60405180910390fd5b6108076000611761565b565b61081b82610815610d8e565b83610f61565b610825828261158a565b5050565b6000610872600660008473ffffffffffffffffffffffffffffffffffffffff1673ffffffffffffffffffffffffffffffffffffffff168152602001908152602001600020611827565b9050919050565b610881610d8e565b73ffffffffffffffffffffffffffffffffffffffff1661089f6108ff565b73ffffffffffffffffffffffffffffffffffffffff16146108f5576040517f08c379a00000000000000000000000000000000000000000000000000000000081526004016108ec906127a1565b60405180910390fd5b6108fd611835565b565b6000600560019054906101000a900473ffffffffffffffffffffffffffffffffffffffff16905090565b606060048054610938906129da565b80601f0160208091040260200160405190810160405280929190818152602001828054610964906129da565b80156109b15780601f10610986576101008083540402835291602001916109b1565b820191906000526020600020905b81548152906001019060200180831161099457829003601f168201915b5050505050905090565b6000806109c6610d8e565b90506000600160008373ffffffffffffffffffffffffffffffffffffffff1673ffffffffffffffffffffffffffffffffffffffff16815260200190815260200160002060008673ffffffffffffffffffffffffffffffffffffffff1673ffffffffffffffffffffffffffffffffffffffff16815260200190815260200160002054905083811015610a8c576040517f08c379a0000000000000000000000000000000000000000000000000000000008152600401610a8390612821565b60405180910390fd5b610a998286868403610d96565b60019250505092915050565b600080610ab0610d8e565b9050610abd818585610fed565b600191505092915050565b83421115610b0b576040517f08c379a0000000000000000000000000000000000000000000000000000000008152600401610b02906126e1565b60405180910390fd5b60007f0000000000000000000000000000000000000000000000000000000000000000888888610b3a8c6118d8565b89604051602001610b50969594939291906124c6565b6040516020818303038152906040528051906020012090506000610b7382611936565b90506000610b8382878787611950565b90508973ffffffffffffffffffffffffffffffffffffffff168173ffffffffffffffffffffffffffffffffffffffff1614610bf3576040517f08c379a0000000000000000000000000000000000000000000000000000000008152600401610bea90612781565b60405180910390fd5b610bfe8a8a8a610d96565b50505050505050505050565b6000600160008473ffffffffffffffffffffffffffffffffffffffff1673ffffffffffffffffffffffffffffffffffffffff16815260200190815260200160002060008373ffffffffffffffffffffffffffffffffffffffff1673ffffffffffffffffffffffffffffffffffffffff16815260200190815260200160002054905092915050565b610c99610d8e565b73ffffffffffffffffffffffffffffffffffffffff16610cb76108ff565b73ffffffffffffffffffffffffffffffffffffffff1614610d0d576040517f08c379a0000000000000000000000000000000000000000000000000000000008152600401610d04906127a1565b60405180910390fd5b600073ffffffffffffffffffffffffffffffffffffffff168173ffffffffffffffffffffffffffffffffffffffff161415610d7d576040517f08c379a0000000000000000000000000000000000000000000000000000000008152600401610d7490612681565b60405180910390fd5b610d8681611761565b50565b505050565b600033905090565b600073ffffffffffffffffffffffffffffffffffffffff168373ffffffffffffffffffffffffffffffffffffffff161415610e06576040517f08c379a0000000000000000000000000000000000000000000000000000000008152600401610dfd90612801565b60405180910390fd5b600073ffffffffffffffffffffffffffffffffffffffff168273ffffffffffffffffffffffffffffffffffffffff161415610e76576040517f08c379a0000000000000000000000000000000000000000000000000000000008152600401610e6d906126a1565b60405180910390fd5b80600160008573ffffffffffffffffffffffffffffffffffffffff1673ffffffffffffffffffffffffffffffffffffffff16815260200190815260200160002060008473ffffffffffffffffffffffffffffffffffffffff1673ffffffffffffffffffffffffffffffffffffffff168152602001908152602001600020819055508173ffffffffffffffffffffffffffffffffffffffff168373ffffffffffffffffffffffffffffffffffffffff167f8c5be1e5ebec7d5bd14f71427d1e84f3dd0314c0f7b2291e5b200ac8c7c3b92583604051610f549190612861565b60405180910390a3505050565b6000610f6d8484610c0a565b90507fffffffffffffffffffffffffffffffffffffffffffffffffffffffffffffffff8114610fe75781811015610fd9576040517f08c379a0000000000000000000000000000000000000000000000000000000008152600401610fd0906126c1565b60405180910390fd5b610fe68484848403610d96565b5b50505050565b600073ffffffffffffffffffffffffffffffffffffffff168373ffffffffffffffffffffffffffffffffffffffff16141561105d576040517f08c379a0000000000000000000000000000000000000000000000000000000008152600401611054906127e1565b60405180910390fd5b600073ffffffffffffffffffffffffffffffffffffffff168273ffffffffffffffffffffffffffffffffffffffff1614156110cd576040517f08c379a00000000000000000000000000000000000000000000000000000000081526004016110c490612601565b60405180910390fd5b6110d883838361197b565b60008060008573ffffffffffffffffffffffffffffffffffffffff1673ffffffffffffffffffffffffffffffffffffffff1681526020019081526020016000205490508181101561115e576040517f08c379a000000000000000000000000000000000000000000000000000000000815260040161115590612701565b60405180910390fd5b8181036000808673ffffffffffffffffffffffffffffffffffffffff1673ffffffffffffffffffffffffffffffffffffffff16815260200190815260200160002081905550816000808573ffffffffffffffffffffffffffffffffffffffff1673ffffffffffffffffffffffffffffffffffffffff16815260200190815260200160002060008282546111f191906128be565b925050819055508273ffffffffffffffffffffffffffffffffffffffff168473ffffffffffffffffffffffffffffffffffffffff167fddf252ad1be2c89b69c2b068fc378daa952ba7f163c4a11628f55a4df523b3ef846040516112559190612861565b60405180910390a36112688484846119d3565b50505050565b60007f000000000000000000000000000000000000000000000000000000000000000073ffffffffffffffffffffffffffffffffffffffff163073ffffffffffffffffffffffffffffffffffffffff161480156112ea57507f000000000000000000000000000000000000000000000000000000000000000046145b15611317577f00000000000000000000000000000000000000000000000000000000000000009050611385565b6113827f00000000000000000000000000000000000000000000000000000000000000007f00000000000000000000000000000000000000000000000000000000000000007f00000000000000000000000000000000000000000000000000000000000000006119d8565b90505b90565b611390610722565b6113cf576040517f08c379a00000000000000000000000000000000000000000000000000000000081526004016113c690612621565b60405180910390fd5b6000600560006101000a81548160ff0219169083151502179055507f5db9ee0a495bf2e6ff9c91a7834c1ba4fdd244a5e8aa4e537bd38aeae4b073aa611413610d8e565b6040516114209190612475565b60405180910390a1565b600073ffffffffffffffffffffffffffffffffffffffff168273ffffffffffffffffffffffffffffffffffffffff16141561149a576040517f08c379a000000000000000000000000000000000000000000000000000000000815260040161149190612841565b60405180910390fd5b6114a66000838361197b565b80600260008282546114b891906128be565b92505081905550806000808473ffffffffffffffffffffffffffffffffffffffff1673ffffffffffffffffffffffffffffffffffffffff168152602001908152602001600020600082825461150d91906128be565b925050819055508173ffffffffffffffffffffffffffffffffffffffff16600073ffffffffffffffffffffffffffffffffffffffff167fddf252ad1be2c89b69c2b068fc378daa952ba7f163c4a11628f55a4df523b3ef836040516115729190612861565b60405180910390a3611586600083836119d3565b5050565b600073ffffffffffffffffffffffffffffffffffffffff168273ffffffffffffffffffffffffffffffffffffffff1614156115fa576040517f08c379a00000000000000000000000000000000000000000000000000000000081526004016115f1906127c1565b60405180910390fd5b6116068260008361197b565b60008060008473ffffffffffffffffffffffffffffffffffffffff1673ffffffffffffffffffffffffffffffffffffffff1681526020019081526020016000205490508181101561168c576040517f08c379a000000000000000000000000000000000000000000000000000000000815260040161168390612641565b60405180910390fd5b8181036000808573ffffffffffffffffffffffffffffffffffffffff1673ffffffffffffffffffffffffffffffffffffffff1681526020019081526020016000208190555081600260008282546116e39190612914565b92505081905550600073ffffffffffffffffffffffffffffffffffffffff168373ffffffffffffffffffffffffffffffffffffffff167fddf252ad1be2c89b69c2b068fc378daa952ba7f163c4a11628f55a4df523b3ef846040516117489190612861565b60405180910390a361175c836000846119d3565b505050565b6000600560019054906101000a900473ffffffffffffffffffffffffffffffffffffffff16905081600560016101000a81548173ffffffffffffffffffffffffffffffffffffffff021916908373ffffffffffffffffffffffffffffffffffffffff1602179055508173ffffffffffffffffffffffffffffffffffffffff168173ffffffffffffffffffffffffffffffffffffffff167f8be0079c531659141344cd1fd0a4f28419497f9722a3daafe3b4186f6b6457e060405160405180910390a35050565b600081600001549050919050565b61183d610722565b1561187d576040517f08c379a000000000000000000000000000000000000000000000000000000000815260040161187490612741565b60405180910390fd5b6001600560006101000a81548160ff0219169083151502179055507f62e78cea01bee320cd4e420270b5ea74000d11b0c9f74754ebdbfc544b05a2586118c1610d8e565b6040516118ce9190612475565b60405180910390a1565b600080600660008473ffffffffffffffffffffffffffffffffffffffff1673ffffffffffffffffffffffffffffffffffffffff168152602001908152602001600020905061192581611827565b915061193081611a12565b50919050565b600061194961194361126e565b83611a28565b9050919050565b600080600061196187878787611a5b565b9150915061196e81611b68565b8192505050949350505050565b611983610722565b156119c3576040517f08c379a00000000000000000000000000000000000000000000000000000000081526004016119ba90612741565b60405180910390fd5b6119ce838383610d89565b505050565b505050565b600083838346306040516020016119f3959493929190612527565b6040516020818303038152906040528051906020012090509392505050565b6001816000016000828254019250508190555050565b60008282604051602001611a3d92919061243e565b60405160208183030381529060405280519060200120905092915050565b6000807f7fffffffffffffffffffffffffffffff5d576e7357a4501ddfe92f46681b20a08360001c1115611a96576000600391509150611b5f565b601b8560ff1614158015611aae5750601c8560ff1614155b15611ac0576000600491509150611b5f565b600060018787878760405160008152602001604052604051611ae5949392919061257a565b6020604051602081039080840390855afa158015611b07573d6000803e3d6000fd5b505050602060405103519050600073ffffffffffffffffffffffffffffffffffffffff168173ffffffffffffffffffffffffffffffffffffffff161415611b5657600060019250925050611b5f565b80600092509250505b94509492505050565b60006004811115611ba2577f4e487b7100000000000000000000000000000000000000000000000000000000600052602160045260246000fd5b816004811115611bdb577f4e487b7100000000000000000000000000000000000000000000000000000000600052602160045260246000fd5b1415611be657611eb6565b60016004811115611c20577f4e487b7100000000000000000000000000000000000000000000000000000000600052602160045260246000fd5b816004811115611c59577f4e487b7100000000000000000000000000000000000000000000000000000000600052602160045260246000fd5b1415611c9a576040517f08c379a0000000000000000000000000000000000000000000000000000000008152600401611c91906125e1565b60405180910390fd5b60026004811115611cd4577f4e487b7100000000000000000000000000000000000000000000000000000000600052602160045260246000fd5b816004811115611d0d577f4e487b7100000000000000000000000000000000000000000000000000000000600052602160045260246000fd5b1415611d4e576040517f08c379a0000000000000000000000000000000000000000000000000000000008152600401611d4590612661565b60405180910390fd5b60036004811115611d88577f4e487b7100000000000000000000000000000000000000000000000000000000600052602160045260246000fd5b816004811115611dc1577f4e487b7100000000000000000000000000000000000000000000000000000000600052602160045260246000fd5b1415611e02576040517f08c379a0000000000000000000000000000000000000000000000000000000008152600401611df990612721565b60405180910390fd5b600480811115611e3b577f4e487b7100000000000000000000000000000000000000000000000000000000600052602160045260246000fd5b816004811115611e74577f4e487b7100000000000000000000000000000000000000000000000000000000600052602160045260246000fd5b1415611eb5576040517f08c379a0000000000000000000000000000000000000000000000000000000008152600401611eac90612761565b60405180910390fd5b5b50565b600081359050611ec881612f84565b92915050565b600081359050611edd81612f9b565b92915050565b600081359050611ef281612fb2565b92915050565b600081359050611f0781612fc9565b92915050565b600060208284031215611f1f57600080fd5b6000611f2d84828501611eb9565b91505092915050565b60008060408385031215611f4957600080fd5b6000611f5785828601611eb9565b9250506020611f6885828601611eb9565b9150509250929050565b600080600060608486031215611f8757600080fd5b6000611f9586828701611eb9565b9350506020611fa686828701611eb9565b9250506040611fb786828701611ee3565b9150509250925092565b600080600080600080600060e0888a031215611fdc57600080fd5b6000611fea8a828b01611eb9565b9750506020611ffb8a828b01611eb9565b965050604061200c8a828b01611ee3565b955050606061201d8a828b01611ee3565b945050608061202e8a828b01611ef8565b93505060a061203f8a828b01611ece565b92505060c06120508a828b01611ece565b91505092959891949750929550565b6000806040838503121561207257600080fd5b600061208085828601611eb9565b925050602061209185828601611ee3565b9150509250929050565b6000602082840312156120ad57600080fd5b60006120bb84828501611ee3565b91505092915050565b6120cd81612948565b82525050565b6120dc8161295a565b82525050565b6120eb81612966565b82525050565b6121026120fd82612966565b612a0c565b82525050565b600061211382612897565b61211d81856128a2565b935061212d8185602086016129a7565b61213681612a74565b840191505092915050565b600061214e6018836128a2565b915061215982612a85565b602082019050919050565b60006121716023836128a2565b915061217c82612aae565b604082019050919050565b60006121946014836128a2565b915061219f82612afd565b602082019050919050565b60006121b76022836128a2565b91506121c282612b26565b604082019050919050565b60006121da601f836128a2565b91506121e582612b75565b602082019050919050565b60006121fd6026836128a2565b915061220882612b9e565b604082019050919050565b60006122206022836128a2565b915061222b82612bed565b604082019050919050565b60006122436002836128b3565b915061224e82612c3c565b600282019050919050565b6000612266601d836128a2565b915061227182612c65565b602082019050919050565b6000612289601d836128a2565b915061229482612c8e565b602082019050919050565b60006122ac6026836128a2565b91506122b782612cb7565b604082019050919050565b60006122cf6022836128a2565b91506122da82612d06565b604082019050919050565b60006122f26010836128a2565b91506122fd82612d55565b602082019050919050565b60006123156022836128a2565b915061232082612d7e565b604082019050919050565b6000612338601e836128a2565b915061234382612dcd565b602082019050919050565b600061235b6020836128a2565b915061236682612df6565b602082019050919050565b600061237e6021836128a2565b915061238982612e1f565b604082019050919050565b60006123a16025836128a2565b91506123ac82612e6e565b604082019050919050565b60006123c46024836128a2565b91506123cf82612ebd565b604082019050919050565b60006123e76025836128a2565b91506123f282612f0c565b604082019050919050565b600061240a601f836128a2565b915061241582612f5b565b602082019050919050565b61242981612990565b82525050565b6124388161299a565b82525050565b600061244982612236565b915061245582856120f1565b60208201915061246582846120f1565b6020820191508190509392505050565b600060208201905061248a60008301846120c4565b92915050565b60006020820190506124a560008301846120d3565b92915050565b60006020820190506124c060008301846120e2565b92915050565b600060c0820190506124db60008301896120e2565b6124e860208301886120c4565b6124f560408301876120c4565b6125026060830186612420565b61250f6080830185612420565b61251c60a0830184612420565b979650505050505050565b600060a08201905061253c60008301886120e2565b61254960208301876120e2565b61255660408301866120e2565b6125636060830185612420565b61257060808301846120c4565b9695505050505050565b600060808201905061258f60008301876120e2565b61259c602083018661242f565b6125a960408301856120e2565b6125b660608301846120e2565b95945050505050565b600060208201905081810360008301526125d98184612108565b905092915050565b600060208201905081810360008301526125fa81612141565b9050919050565b6000602082019050818103600083015261261a81612164565b9050919050565b6000602082019050818103600083015261263a81612187565b9050919050565b6000602082019050818103600083015261265a816121aa565b9050919050565b6000602082019050818103600083015261267a816121cd565b9050919050565b6000602082019050818103600083015261269a816121f0565b9050919050565b600060208201905081810360008301526126ba81612213565b9050919050565b600060208201905081810360008301526126da81612259565b9050919050565b600060208201905081810360008301526126fa8161227c565b9050919050565b6000602082019050818103600083015261271a8161229f565b9050919050565b6000602082019050818103600083015261273a816122c2565b9050919050565b6000602082019050818103600083015261275a816122e5565b9050919050565b6000602082019050818103600083015261277a81612308565b9050919050565b6000602082019050818103600083015261279a8161232b565b9050919050565b600060208201905081810360008301526127ba8161234e565b9050919050565b600060208201905081810360008301526127da81612371565b9050919050565b600060208201905081810360008301526127fa81612394565b9050919050565b6000602082019050818103600083015261281a816123b7565b9050919050565b6000602082019050818103600083015261283a816123da565b9050919050565b6000602082019050818103600083015261285a816123fd565b9050919050565b60006020820190506128766000830184612420565b92915050565b6000602082019050612891600083018461242f565b92915050565b600081519050919050565b600082825260208201905092915050565b600081905092915050565b60006128c982612990565b91506128d483612990565b9250827fffffffffffffffffffffffffffffffffffffffffffffffffffffffffffffffff0382111561290957612908612a16565b5b828201905092915050565b600061291f82612990565b915061292a83612990565b92508282101561293d5761293c612a16565b5b828203905092915050565b600061295382612970565b9050919050565b60008115159050919050565b6000819050919050565b600073ffffffffffffffffffffffffffffffffffffffff82169050919050565b6000819050919050565b600060ff82169050919050565b60005b838110156129c55780820151818401526020810190506129aa565b838111156129d4576000848401525b50505050565b600060028204905060018216806129f257607f821691505b60208210811415612a0657612a05612a45565b5b50919050565b6000819050919050565b7f4e487b7100000000000000000000000000000000000000000000000000000000600052601160045260246000fd5b7f4e487b7100000000000000000000000000000000000000000000000000000000600052602260045260246000fd5b6000601f19601f8301169050919050565b7f45434453413a20696e76616c6964207369676e61747572650000000000000000600082015250565b7f45524332303a207472616e7366657220746f20746865207a65726f206164647260008201527f6573730000000000000000000000000000000000000000000000000000000000602082015250565b7f5061757361626c653a206e6f7420706175736564000000000000000000000000600082015250565b7f45524332303a206275726e20616d6f756e7420657863656564732062616c616e60008201527f6365000000000000000000000000000000000000000000000000000000000000602082015250565b7f45434453413a20696e76616c6964207369676e6174757265206c656e67746800600082015250565b7f4f776e61626c653a206e6577206f776e657220697320746865207a65726f206160008201527f6464726573730000000000000000000000000000000000000000000000000000602082015250565b7f45524332303a20617070726f766520746f20746865207a65726f20616464726560008201527f7373000000000000000000000000000000000000000000000000000000000000602082015250565b7f1901000000000000000000000000000000000000000000000000000000000000600082015250565b7f45524332303a20696e73756666696369656e7420616c6c6f77616e6365000000600082015250565b7f45524332305065726d69743a206578706972656420646561646c696e65000000600082015250565b7f45524332303a207472616e7366657220616d6f756e742065786365656473206260008201527f616c616e63650000000000000000000000000000000000000000000000000000602082015250565b7f45434453413a20696e76616c6964207369676e6174757265202773272076616c60008201527f7565000000000000000000000000000000000000000000000000000000000000602082015250565b7f5061757361626c653a2070617573656400000000000000000000000000000000600082015250565b7f45434453413a20696e76616c6964207369676e6174757265202776272076616c60008201527f7565000000000000000000000000000000000000000000000000000000000000602082015250565b7f45524332305065726d69743a20696e76616c6964207369676e61747572650000600082015250565b7f4f776e61626c653a2063616c6c6572206973206e6f7420746865206f776e6572600082015250565b7f45524332303a206275726e2066726f6d20746865207a65726f2061646472657360008201527f7300000000000000000000000000000000000000000000000000000000000000602082015250565b7f45524332303a207472616e736665722066726f6d20746865207a65726f20616460008201527f6472657373000000000000000000000000000000000000000000000000000000602082015250565b7f45524332303a20617070726f76652066726f6d20746865207a65726f2061646460008201527f7265737300000000000000000000000000000000000000000000000000000000602082015250565b7f45524332303a2064656372656173656420616c6c6f77616e63652062656c6f7760008201527f207a65726f000000000000000000000000000000000000000000000000000000602082015250565b7f45524332303a206d696e7420746f20746865207a65726f206164647265737300600082015250565b612f8d81612948565b8114612f9857600080fd5b50565b612fa481612966565b8114612faf57600080fd5b50565b612fbb81612990565b8114612fc657600080fd5b50565b612fd28161299a565b8114612fdd57600080fd5b5056fea264697066735822122096a1c3508139a459d35e252a06f6791b30afd3e444987dc254b855e8c066c53064736f6c63430008040033",
  "devdoc": {
    "kind": "dev",
    "methods": {
      "DOMAIN_SEPARATOR()": {
        "details": "See {IERC20Permit-DOMAIN_SEPARATOR}."
      },
      "allowance(address,address)": {
        "details": "See {IERC20-allowance}."
      },
      "approve(address,uint256)": {
        "details": "See {IERC20-approve}. NOTE: If `amount` is the maximum `uint256`, the allowance is not updated on `transferFrom`. This is semantically equivalent to an infinite approval. Requirements: - `spender` cannot be the zero address."
      },
      "balanceOf(address)": {
        "details": "See {IERC20-balanceOf}."
      },
      "burn(uint256)": {
        "details": "Destroys `amount` tokens from the caller. See {ERC20-_burn}."
      },
      "burnFrom(address,uint256)": {
        "details": "Destroys `amount` tokens from `account`, deducting from the caller's allowance. See {ERC20-_burn} and {ERC20-allowance}. Requirements: - the caller must have allowance for ``accounts``'s tokens of at least `amount`."
      },
      "decimals()": {
        "details": "Returns the number of decimals used to get its user representation. For example, if `decimals` equals `2`, a balance of `505` tokens should be displayed to a user as `5.05` (`505 / 10 ** 2`). Tokens usually opt for a value of 18, imitating the relationship between Ether and Wei. This is the value {ERC20} uses, unless this function is overridden; NOTE: This information is only used for _display_ purposes: it in no way affects any of the arithmetic of the contract, including {IERC20-balanceOf} and {IERC20-transfer}."
      },
      "decreaseAllowance(address,uint256)": {
        "details": "Atomically decreases the allowance granted to `spender` by the caller. This is an alternative to {approve} that can be used as a mitigation for problems described in {IERC20-approve}. Emits an {Approval} event indicating the updated allowance. Requirements: - `spender` cannot be the zero address. - `spender` must have allowance for the caller of at least `subtractedValue`."
      },
      "increaseAllowance(address,uint256)": {
        "details": "Atomically increases the allowance granted to `spender` by the caller. This is an alternative to {approve} that can be used as a mitigation for problems described in {IERC20-approve}. Emits an {Approval} event indicating the updated allowance. Requirements: - `spender` cannot be the zero address."
      },
      "name()": {
        "details": "Returns the name of the token."
      },
      "nonces(address)": {
        "details": "See {IERC20Permit-nonces}."
      },
      "owner()": {
        "details": "Returns the address of the current owner."
      },
      "paused()": {
        "details": "Returns true if the contract is paused, and false otherwise."
      },
      "permit(address,address,uint256,uint256,uint8,bytes32,bytes32)": {
        "details": "See {IERC20Permit-permit}."
      },
      "renounceOwnership()": {
        "details": "Leaves the contract without owner. It will not be possible to call `onlyOwner` functions anymore. Can only be called by the current owner. NOTE: Renouncing ownership will leave the contract without an owner, thereby removing any functionality that is only available to the owner."
      },
      "symbol()": {
        "details": "Returns the symbol of the token, usually a shorter version of the name."
      },
      "totalSupply()": {
        "details": "See {IERC20-totalSupply}."
      },
      "transfer(address,uint256)": {
        "details": "See {IERC20-transfer}. Requirements: - `to` cannot be the zero address. - the caller must have a balance of at least `amount`."
      },
      "transferFrom(address,address,uint256)": {
        "details": "See {IERC20-transferFrom}. Emits an {Approval} event indicating the updated allowance. This is not required by the EIP. See the note at the beginning of {ERC20}. NOTE: Does not update the allowance if the current allowance is the maximum `uint256`. Requirements: - `from` and `to` cannot be the zero address. - `from` must have a balance of at least `amount`. - the caller must have allowance for ``from``'s tokens of at least `amount`."
      },
      "transferOwnership(address)": {
        "details": "Transfers ownership of the contract to a new account (`newOwner`). Can only be called by the current owner."
      }
    },
    "version": 1
  },
  "userdoc": {
    "kind": "user",
    "methods": {},
    "version": 1
  },
  "storageLayout": {
    "storage": [
      {
        "astId": 212,
        "contract": "contracts/MyToken.sol:MyToken",
        "label": "_balances",
        "offset": 0,
        "slot": "0",
        "type": "t_mapping(t_address,t_uint256)"
      },
      {
        "astId": 218,
        "contract": "contracts/MyToken.sol:MyToken",
        "label": "_allowances",
        "offset": 0,
        "slot": "1",
        "type": "t_mapping(t_address,t_mapping(t_address,t_uint256))"
      },
      {
        "astId": 220,
        "contract": "contracts/MyToken.sol:MyToken",
        "label": "_totalSupply",
        "offset": 0,
        "slot": "2",
        "type": "t_uint256"
      },
      {
        "astId": 222,
        "contract": "contracts/MyToken.sol:MyToken",
        "label": "_name",
        "offset": 0,
        "slot": "3",
        "type": "t_string_storage"
      },
      {
        "astId": 224,
        "contract": "contracts/MyToken.sol:MyToken",
        "label": "_symbol",
        "offset": 0,
        "slot": "4",
        "type": "t_string_storage"
      },
      {
        "astId": 122,
        "contract": "contracts/MyToken.sol:MyToken",
        "label": "_paused",
        "offset": 0,
        "slot": "5",
        "type": "t_bool"
      },
      {
        "astId": 7,
        "contract": "contracts/MyToken.sol:MyToken",
        "label": "_owner",
        "offset": 1,
        "slot": "5",
        "type": "t_address"
      },
      {
        "astId": 954,
        "contract": "contracts/MyToken.sol:MyToken",
        "label": "_nonces",
        "offset": 0,
        "slot": "6",
        "type": "t_mapping(t_address,t_struct(Counter)1164_storage)"
      }
    ],
    "types": {
      "t_address": {
        "encoding": "inplace",
        "label": "address",
        "numberOfBytes": "20"
      },
      "t_bool": {
        "encoding": "inplace",
        "label": "bool",
        "numberOfBytes": "1"
      },
      "t_mapping(t_address,t_mapping(t_address,t_uint256))": {
        "encoding": "mapping",
        "key": "t_address",
        "label": "mapping(address => mapping(address => uint256))",
        "numberOfBytes": "32",
        "value": "t_mapping(t_address,t_uint256)"
      },
      "t_mapping(t_address,t_struct(Counter)1164_storage)": {
        "encoding": "mapping",
        "key": "t_address",
        "label": "mapping(address => struct Counters.Counter)",
        "numberOfBytes": "32",
        "value": "t_struct(Counter)1164_storage"
      },
      "t_mapping(t_address,t_uint256)": {
        "encoding": "mapping",
        "key": "t_address",
        "label": "mapping(address => uint256)",
        "numberOfBytes": "32",
        "value": "t_uint256"
      },
      "t_string_storage": {
        "encoding": "bytes",
        "label": "string",
        "numberOfBytes": "32"
      },
      "t_struct(Counter)1164_storage": {
        "encoding": "inplace",
        "label": "struct Counters.Counter",
        "members": [
          {
            "astId": 1163,
            "contract": "contracts/MyToken.sol:MyToken",
            "label": "_value",
            "offset": 0,
            "slot": "0",
            "type": "t_uint256"
          }
        ],
        "numberOfBytes": "32"
      },
      "t_uint256": {
        "encoding": "inplace",
        "label": "uint256",
        "numberOfBytes": "32"
      }
    }
  }
}